:040000008A15E62C4B
:100006008316031314190B28111A0B2803100C2836
:10001600031403181228911912287010132870144B
:1000260070181B288316031311191B2803101C288C
:100036000314031824288316031391182428701018
:100046002528701470182D288316031311182D28CF
:0E00560003102E280314031C31280328080071
:10006400831203135E08880009150330FC009730DF
:10007400FD00FD0B3B28FC0B3B2800000000091190
:100084000330FC009730FD00FD0B4628FC0B46288E
:060094000000000008005E
:0A009A00831603131114032008005D
:0E00A400F201F101F001F801F3010030080053
:0E00B2008312031322088A002108820008002E
:0E00C0008030831203135D04DE00322008003E
:1000CE00FB14FB1F7128FF30F300F200F100F0006B
:0800DE00FA0DF20CFF300800DE
:0C00E600831203135D0893000320080040
:0A00F2008316031311150320080004
:1000FC007B15FB1F88280130F300F201F101F001A0
:08010C00FA0DF20CFF300800AF
:08011400FA1FF213003008008D
:10011C007C18C428FC1895287C19E3288E28A0018B
:10012C007208031DB5287108F2007008F1007808F8
:10013C00F000F801A0157208031DB5287108F20033
:10014C007008F100F001A01120167208031DB528EB
:10015C007108F200F101A01572080319D7282008C4
:10016C00F302031D031CDB280310F21BC428F80D3B
:10017C00F00DF10DF20DF30BBB28DB287B1B701C73
:10018C00DF28F81FDF28F00A0319F10A0319F20A15
:10019C00031DDF28F20CF10CF00CF30A0319E32811
:1001AC00DF280130FC005220E6280230FC007E20C3
:1001BC00E6280430FC008A20E6280830FC00672082
:0401CC000000080027
:1001D000831203137008F100F0010830FC0071086D
:1001E000F40C0318F728FC0BF028F101003403107D
:1001F000FC28F40C0318F107F10CF00CFC0BF928A7
:020200000800F4
:1002020083120313F8010830FC00700DF80D740816
:10021200F80203180E29F8070310F00DFC0B06294B
:020222000800D2
:06022400FB15FF3008008D
:10022A007B14FB1F2029F201FA1FFF30F200F100B4
:0A023A00F000FA0DF20CFF3008008E
:10024400710DF80DF90D7408F8027508031C750F8B
:10025400F902F00DF10D0F30FC00710DF80DF90DE0
:100264007408701C3B29F8027508031C750FF90209
:100274004029F80775080318750FF907F00DF10DFB
:10028400FC0B2F2970184C297408F80775080318FB
:08029400750FF90700000800D6
:10029C0083120313DC015A08DD00602009145C088A
:1002AC005B07840000080A3A031964295C085B07A1
:1002BC0084000008DE003220DC0A552909100800F1
:1002CC0059208A110A128000840AA10A0319A20A71
:0802DC00F003031D6629080070
:1002E40003208316031391150320831203131308A9
:1002F400DC000320831203135A0803198329DB014A
:1003040085290130DB005B188A29831691128C2918
:0E03140083169116111683125C08F000080083
:10032200A0017208031DA6297108F2007008F100ED
:10033200F001A0157208031DA6297108F200F1014F
:10034200A011201672080319B4292008F302031D14
:10035200031CB8290310F21BBC29F00DF10DF20D9C
:10036200F30BAC29B8290130FC005220BF2902301E
:0E037200FC007E20BF290430FC008A20080019
:100380004D20D03083120313DD007320831203133A
:100390005A08DD007320831203135B08DD0073200D
:0403A00079200800B8
:1003A40083120313F3010330FB008A30FC00553041
:1003B400FD00FD0BDB29FC0BDB29FB0BDB2900001B
:1003C40000007308003A031D4C2AF2010430720243
:1003D40003184B2A7208DD3EF00007300318013E73
:1003E400F1007008A1007108A20059208A110A12B4
:1003F40086001D2A1130F300492A1130F300492ADE
:100404000130F300492A0230F300492A0330F30093
:10041400492A0430F300492A0530F300492A0630FA
:10042400F300492A0730F300492A0830F300492A27
:100434000930F300492A0608183A0319FC2906086A
:10044400283A0319FF290608143A0319022A060850
:10045400243A0319052A0608443A0319082A060807
:10046400123A03190B2A0608223A03190E2A06081F
:10047400423A0319112A0608113A0319142A0608E4
:10048400213A0319172A0608413A03191A2AF20ACB
:0A049400E829E3297308F0000800CE
:0C049E00013083120313DE00322008003E
:1004AA0083120313FB0173080319922A7208FA00D4
:1004BA00F2178E30F302F31F952AF309F30A083074
:1004CA007302031C782AF300F10D7208F100F2019D
:1004DA0008307302031C782AF300F10DF101730846
:1004EA00031D0310802A73080319802A0310F20CD3
:1004FA00F10CF30B7B2A7B1B711C8A2A031C8A2AA8
:10050A00F10A0319F20AF21BA12AFA1FA42AF20914
:10051A00F109F10A0319F20AA42AF201F101A42A43
:10052A007B14FB1FA72AF201FA1FA72AFF30F20049
:10053A00F100FA0DF20CA72A0130FC00A92A0030BA
:10054A00FC00A92AFF30FC00FC080319AD2A15217A
:0A055A007108F0007208F1000800BB
:100564008312031372087606A000F801F9017308D8
:100574007702031CD52A7708FD007308F7007D086D
:10058400F3007608FD007208F6007D08F200750895
:10059400FD007108F5007D08F1007408FD00700885
:1005A400F4007D08F000770803194E2B7208FA0056
:1005B400F217F61777087302F7000319082B0830AF
:1005C4007702031CFE2AF7007408F9007508F4008A
:1005D4007608F500F60108307702031CFE2AF700BE
:1005E4007408F9007508F400F50108307702031C5B
:1005F400FE2A7A08F2004E2B77080319082B031001
:10060400F60CF50CF40CF90CF70B012BA01F152BB1
:10061400F909F409F509F609F90A0319F40A0319A1
:10062400F50A0319F60A7908F80774080318740F11
:10063400F00775080318750FF10776080318760F8D
:10064400F207A01B2E2B031C3E2BF20CF10CF00C1A
:10065400F80CF30F3E2B4A2B0318422BF809F00930
:10066400F109F209F80A0319F00A0319F10A031946
:10067400F20A8030FA06462B0130FC008E20502B03
:100684000230FC008E20502B0430FC009121502BB2
:100694000830FC006720502B0030FC0000000800EC
:1006A40083120313F801F9011030FC00710DF80DE9
:1006B400F90D7408F8027508031C750FF902031884
:1006C4006A2B7408F80775080318750FF9070310E7
:0A06D400F00DF10DFC0B582B08008F
:1006DE0083120313FB01FC01FA0173080319AE2BFD
:1006EE00F2178E30F302F31B7F2B03197F2BB12BE6
:1006FE00F309F30A08307302031C942BF300F10D77
:10070E007208F100F20108307302031C942BF10DF4
:10071E00F1017308031D03109C2B730803199C2B06
:10072E000310F20CF10CF30B972B7B1B711CA62BF9
:10073E00031CA62BF10A0319F20AF21BBD2BFA1F9A
:10074E00C02BF209F109F10A0319F20AC02BF201CA
:10075E00F101C02B7B14FB1FC32BF201FA1FC32B1D
:10076E00FF30F200F100FA0DF20CC32B0130FC0049
:10077E00C52B0030FC00C52BFF30FC00FC08031914
:0E078E00C92B15217108F0007208F100080057
:10079C004D20803083120313DD007320831203136A
:1007AC005608DD0073207920413083120313FC00BE
:1007BC00EE30FD00FD0BE02BFC0BE02B00004D2080
:1007CC00413083120313FC00EE30FD00FD0BEC2BCB
:1007DC00FC0BEC2B00008130DD0073200130831208
:1007EC000313DA0072217008AA000130DA007221BA
:1007FC007008AB00DA0172217008AC00792083120A
:10080C0003132B08F000F00CF013F00CF01370082D
:04081C00AB00080025
:10082000831203137408003A031D2B2C7508003A39
:10083000031D2B2C7608003A031D2B2C7708003A59
:10084000031D2B2CFF30F000FF30F1007F30F20051
:10085000FF30F300C62C8312031377080319BA2C58
:1008600073080319BD2C720876068039FA00F21756
:10087000F617A0017208F8007108FC007008FD006E
:100880007408FD027508031C750FFC027608031C32
:10089000760FF802F801FC01FD01031C562C031031
:1008A000F20CF10CF00CF80C0130A0007708F30208
:1008B000031C602C7E302007F3070318C02C652C26
:1008C0007E302007F307031CC32C1830FA07FD0DF8
:1008D000FC0DF80DF00DF10DF20DA00D7408F002F5
:1008E0007508031C750FF1027608031C760FF202DF
:1008F000760DA004201C7E2C7D14892C7408F00732
:1009000075080318750FF10776080318760AF207C1
:100910007D10FA031F307A05031D672C7B1B7D1C9D
:10092000B02C0310F00DF10DF20DA00D7408F002C3
:100930007508031C750FF1027608031C760FF2028E
:10094000760D20040139FD070318FC0A0319F80A83
:10095000031DB02CF80CFC0CFD0CF30A0319C02C81
:10096000FA1FF8137808F2007C08F1007D08F00007
:100970000030C52C01301221C52C02305220C52C6C
:0E09800004306720C52C08307E2000000800DF
:10098E00831203137008F8007108F000F101F201F0
:10099E00F301FB01FC019630F300FA017008F1003F
:0C09AE007808F000F801F2019121080027
:1009BA00831203135608F000F00D7010F00D70103A
:1009CA00F00D7010F00D701020307004DE0003304E
:1009DA00F2005708F000F10172080319F92CF00D22
:1009EA00F10D7010FF3EF22C7008DE045808F0007A
:1009FA00F101F00DF10D7010F00DF10D701070088D
:060A0A00DE0432200800AA
:100A100083160317880100308312031389053030D1
:0C0A20008800003083168905880108005A
:100A2C00BC3083120313A1000D30A200A03084004F
:100A3C002E30F00066214F224730DA00A030DB0068
:100A4C004E214C2D0530DA00A430DB004E21642DF4
:100A5C000530DA00AD30DB004E21642D0630DA00B3
:100A6C00B630DB004E21642D0630DA00BC30DB00E2
:100A7C004E21642D0530DA00C130DB004E21642D8F
:100A8C000530DA00C830DB004E21642D5608003AE0
:100A9C000319282D5608013A03192E2D5608023A2F
:100AAC000319342D5608043A03193A2D5608053A01
:100ABC000319402D5608063A0319462DD801023069
:100ACC00580203189C2DD2217008D7007008113AD7
:100ADC00031D712DD7015808F000F1017008A03EDC
:100AEC0084005708303EF000700880005808003A27
:100AFC00031D8F2D5708F000F00D7010F00D7010C5
:100B0C00F00D7010F00D70107008D7007008D9003F
:100B1C00952D5808013A031D952D5708D9074730D4
:100B2C00DA00A030DB004E21D80A652D5608003AB9
:100B3C00031DA72D5908593C0318A72D5930D9006E
:100B4C00D22D5608013A031DB22D5908593C0318F1
:100B5C00B22D5930D900D22D5608023A031DBD2DA5
:100B6C005908233C0318BD2D2330D900D22D56082B
:100B7C00043A031DC82D5908313C0318C82D3130D7
:100B8C00D900D22D5608053A031DD22D5908123C16
:100B9C000318D22D1230D9005608DA005908DB00A0
:100BAC00C021033083120313FB008A30FC00553044
:100BBC00FD00FD0BDF2DFC0BDF2DFB0BDF2D0000F3
:100BCC0000004F228230FC00DD30FD00FD0BEC2DCF
:0A0BDC00FC0BEC2D000000000800E7
:100BE600831203132308F000F00CF013F00CF0133B
:100BF600F00CF013F00CF0130A30F400E8200F307C
:100C06002305F1007108F0077008A3002408F0001E
:100C1600F00CF013F00CF013F00CF013F00CF013D2
:100C26000A30F400E8200F302405F1007108F007BF
:100C36007008A4002508F000F00CF013F00CF01377
:100C4600F00CF013F00CF0130A30F400E8200F302B
:100C56002505F1007108F0077008A5002608F000C8
:100C6600F00CF013F00CF013F00CF013F00CF01382
:100C76000A30F400E8200F302605F1007108F0076D
:100C86007008A6002708F000F00CF013F00CF01323
:100C9600F00CF013F00CF0130A30F400E8200F30DB
:100CA6002705F1007108F0077008A7002808F00072
:100CB600F00CF013F00CF013F00CF013F00CF01332
:100CC6000A30F400E8200F302805F1007108F0071B
:100CD6007008A8002908F000F00CF013F00CF013CF
:100CE600F00CF013F00CF0130A30F400E8200F308B
:100CF6002905F1007108F0077008A9002508083ACF
:100D0600031D8B2E1E30240203188B2E85158C2E68
:100D160085110730F4002708F00001217808F0005B
:100D26007008003A031DA12E2508093A031DA12EBD
:100D36000F3024020318A12E0516A22E05120F301D
:100D4600F4002708F00001217808F0007008003A46
:100D5600031DB72E25080C3A031DB72E24080F3C99
:0C0D66000318B72E8516B82E8512080061
:100D7200413083120313FC00EE30FD00FD0BBF2E49
:080D8200FC0BBF2E000008006D
:100D8A0083120313FB017308031D770803191C2F31
:100D9A0072087606FA007708F3077E30031CD92E0C
:100DAA00F30203181F2FDC2EF302031C222F7208F2
:100DBA00F8007108FC007008FD00F817F617031018
:100DCA00F201F101F0011830A0007D1CF62E740822
:100DDA00F00775080318750FF10776080318760FE0
:100DEA00F207F20CF10CF00CF80CFC0CFD0C0310E1
:100DFA00A00BEA2EF21B062FF80DF00DF10DF20DE5
:100E0A00F3037B1B701C182FF81F182FF00A031905
:100E1A00F10A0319F20A031D182FF20CF10CF00C57
:100E2A00F30A03191F2FFA1FF2130030242F01307F
:100E3A005220242F02306720242F04307E20000005
:020E4A0008009E
:100E4C00831203137008F8007108F000F101F2012D
:100E5C00F301FB01FC019630F300FA01F01F3C2F6B
:100E6C00F809F009F80A0319F00AFA177008F100EA
:0C0E7C007808F000F801F2019121080054
:100E880083120313FB01FA01F9018030F800F10C19
:100E9800F00C031C582F7408F90775080318750F10
:100EA800FA070318FB0A0310F01F602F7408FA07EB
:100EB80075080318750FFB07FB0CFA0CF90CF80CF6
:100EC800031C4B2F7B08F3007A08F2007908F10025
:060ED8007808F00008009C
:100EDE00831203135608F000F00D701004307004E6
:100EEE00DE005708F000F1017008DE043220080021
:100EFE00831203135608F000F00D7010F00D7010F1
:100F0E0008307004DE005708F000F101F00DF10D0D
:100F1E0070107008DE045808F000F1017008DE044D
:040F2E003220080065
:100F32000330831203135605F2007208F000F00D1D
:100F42007010F00D7010F00D7010F00D7010700830
:100F520097045608F0005708F100F10CF00CF11359
:100F6200711BF117F10CF00CF113711BF1177008E2
:0C0F7200D6007108D70070089500080038
:100F7E0083160313871507168312941594160930DA
:0A0F8E0083169300803094000800E1
:100F98008312031397131713971517158C1012152F
:060FA8008316071108008A
:0C0FAE0083120313340383169200080022
:10100000831203137408003A031D0F287508003A71
:10101000031D0F28FF30F0007F30F1006A28831293
:101020000313FD01F901F80171087004031900347C
:1010300071087506FA00FA1BFD09FB01F51F25284A
:10104000F409F509F40A0319F50AF11F2C28F0092F
:10105000F109F00A0319F10A71087504FA00FA1B84
:1010600041288A1122218A157B185628FD1F003439
:10107000F009F109F00A0319F10AF809F909F80A67
:101080000319F90A0034F51F5228F11B4E28710884
:10109000F9007008F800F101F0013628F101F001C3
:1010A000F00A0034F109F009FB0A3328F80A0319A1
:1010B000F90A74087802031D362875087902031DA1
:1010C0003628F901F801F00A0319F10AF11F362850
:0610D0000000FF340800DF
:1010D600543083120313B4004930B5004D30B600C6
:1010E6004530B7003A30B8002030B9002030BA0099
:1010F6003A30BB002030BC002030BD003A30BE0084
:101106002030BF002030C0002030C1000A30C200AD
:10111600C3014430C4004130C5005430C6004530D8
:10112600C7003A30C8002030C9002030CA002F302E
:10113600CB002030CC002030CD002F30CE00323016
:10114600CF003030D0002030D1002030D2000A301D
:10115600D300D4010A30F4002308F0008A110121DB
:101166008A157808F00030307007C0000A30F400A5
:101176002308F0008A1101218A1530307007BF005C
:101186000A30F4002408F0008A1101218A15780833
:10119600F00030307007BD000A30F4002408F0007B
:1011A6008A1101218A1530307007BC000A30F4001C
:1011B6002508F0008A1101218A157808F0003030E0
:1011C6007007BA000A30F4002508F0008A110121E0
:1011D6008A1530307007B9000A30F4002908F0008B
:1011E6008A1101218A157808F00030307007D20084
:1011F6000A30F4002908F0008A1101218A153030DE
:101206007007D1000A30F4002808F0008A11012185
:101216008A157808F00030307007CD000A30F400E7
:101226002808F0008A1101218A1530307007CC0099
:101236000A30F4002708F0008A1101218A1578087F
:10124600F00030307007CA000A30F4002708F000BA
:101256008A1101218A1530307007C900DA0134304D
:10126600DB008A114E218A154030DA004430DB005B
:081276008A114E218A150800BF
:10127E00443083120313B4004530B5004730B60036
:10128E005230B7004530B8004530B9005330BA007F
:10129E003A30BB002030BC002030BD002030BE00F4
:1012AE000A30BF00C0014830C1005530C2004D3079
:1012BE00C3004930C4004430C5004930C600543024
:1012CE00C7005930C8003A30C9002030CA0020305B
:1012DE00CB000A30CC00CD0180303006F0008030DB
:1012EE007002031D7C2900302F0203188F292F084E
:1012FE00F0003008F100FF30F400FF30F5008A11E5
:10130E0044278A157008AF007108B0002D30BC005C
:10131E000A30F4000030F5002F08F0003008F1001C
:10132E0000207808F0007908F10030307007BE0018
:10133E000A30F4000030F5002F08F0003008F100FC
:10134E00002030307007BD000A30F4000030F50088
:10135E002D08F0002E08F1008A1152238A15780804
:10136E00F0007908F10030307007CB000A30F4003D
:10137E000030F5002D08F0002E08F1008A115223DE
:10138E008A1530307007CA001030DA003430DB00B6
:10139E008A114E218A155030DA004130DB008A1155
:0613AE004E218A15080023
:1013B400F33083120313D6008A11CE238A152A0828
:1013C400F100F0012B08F0040030F1047008AF00C4
:1013D4007108B0008A1126278A155230F400B830FB
:1013E400F5002F30F6008630F7008A11C5268A15DD
:1013F4000030F4000030F5000030F6008F30F700C4
:101404008A1110248A156630F4006630F500BB306A
:10141400F6008430F7008A11B2228A158A11552207
:101424008A157008AF007108B0008030F200803077
:1014340071067202031D202A7008003C03182E2A2C
:101444002F08013EF00000300318013E3007F10080
:101454007008AF007108B000F530D6008A11CE23B1
:101464008A152A08F100F0012B08F0040030F10479
:101474007008AD007108AE008A11C7248A150030C7
:10148400F4000030F5007A30F6008530F7008A1158
:10149400C5268A150030F4000030F5000030F6004F
:1014A4008F30F7008A1110248A150030F4000030C0
:1014B400F500C030F6008130F7008A11B2228A1597
:1014C4008A116F238A157008AD007108AE00803050
:1014D400F000803030067002031D722A2F08243C6D
:1014E40003187C2AE830D6000330D7008A119927E4
:1014F4008A15A72A8030F000803030067002031D60
:10150400852A2F08203C03188F2A2030D600033068
:10151400D7008A1199278A15A72A8030F0008030D5
:1015240030067002031D982A2F081A3C0318A22AB9
:101534009030D6000130D7008A1199278A15A72A3E
:0C154400D601D7018A1199278A150800EA
:10155000273083120313FC00F530FD00FD0BAE2A8B
:10156000FC0BAE2A9F149F1CB62AB32A1E08F1005A
:101570007108503C0318142B3108053A031D142B35
:1015800007141A30FC00F830FD00FD0BC52AFC0BD7
:10159000C52A000007131A30FC00F830FD00FD0BCF
:1015A000CF2AFC0BCF2A000087141A30FC00F83039
:1015B000FD00FD0BD92AFC0BD92A000007101A30B8
:1015C000FC00F830FD00FD0BE32AFC0BE32A0000D1
:1015D00087161A30FC00F830FD00FD0BED2AFC0BDD
:1015E000ED2A000087101A30FC00F830FD00FD0BDA
:1015F000F72AFC0BF72A000007171A30FC00F83016
:10160000FD00FD0B012BFC0B012B000087121A3093
:10161000FC00F830FD00FD0B0B2BFC0B0B2B00002E
:101620000430B100B201E62B5030710203184C2B8C
:101630007108323C03184C2B3108043A031D4C2B23
:1016400007134130FC00EE30FD00FD0B252BFC0B99
:10165000252B000087164130FC00EE30FD00FD0B0D
:101660002F2BFC0B2F2B000087104130FC00EE309D
:10167000FD00FD0B392BFC0B392B00003208003A22
:10168000031D452B0330B1004B2B3208013A031DDB
:101690004B2B0530B100E62B323071020318842B3E
:1016A0007108143C0318842B3108033A031D842B62
:1016B00087124130FC00EE30FD00FD0B5D2BFC0B72
:1016C0005D2B000087144130FC00EE30FD00FD0B67
:1016D000672BFC0B672B000007104130FC00EE303D
:1016E000FD00FD0B712BFC0B712B00003208003A42
:1016F000031D7D2B0230B100832B3208013A031DFC
:10170000832B0430B100E62B143071020318BC2B7C
:101710007108053C0318BC2B3108023A031DBC2B91
:1017200087104130FC00EE30FD00FD0B952BFC0BCB
:10173000952B000007144130FC00EE30FD00FD0B3E
:101740009F2BFC0B9F2B000007134130FC00EE3059
:10175000FD00FD0BA92BFC0BA92B00003208003A61
:10176000031DB52B0130B100BB2B3208013A031D1C
:10177000BB2B0330B100E62B053071020318E62BBA
:101780003108013A031DE62B07104130FC00EE3012
:10179000FD00FD0BC92BFC0BC92B000007174130C6
:1017A000FC00EE30FD00FD0BD32BFC0BD32B000017
:1017B00007144130FC00EE30FD00FD0BDD2BFC0B6F
:0E17C000DD2B00000230B1000130B200080045
:1017CE004F3083120313B5005030B6005430B700BB
:1017DE004930B8004F30B9004E30BA005330BB001C
:1017EE000A30BC00BD013130BE002D30BF00533079
:1017FE00C0006530C1007430C2002030C3005430C8
:10180E00C4006930C5006D30C6006530C7000A30AF
:10181E00C800C9013230CA002D30CB005330CC0085
:10182E006530CD007430CE002030CF004430D00073
:10183E006130D1007430D2006530D3000A30D4004C
:10184E00D5010430DA003530DB008A114E218A15BD
:10185E004030DA003E30DB008A114E218A151030FE
:10186E00DA004A30DB008A114E218A158A11D22104
:10187E008A157008B4007008013A031D552C023009
:10188E00D6008A1116258A150130D6008A11162522
:10189E008A15D6018A1116258A15682C3408023A43
:1018AE00031D682C0430D6008A1116258A150530C2
:1018BE00D6008A1116258A150630D6008A111625ED
:0418CE008A1508006F
:1018D2008A1108258A158A11B9268A150130D6007F
:1018E2000130D700D8018A11DD248A150130D600D3
:1018F2000130D700D8018A11DD248A150130D600C3
:10190200D701D8018A117F278A158A114F228A1599
:0E1912000130D600D7018A116F278A15080010
:101920008A114D208A15D03083120313DD008A11ED
:1019300073208A1583120313DD018A1173208A151F
:101940008A1179208A158A114D208A15D130831287
:101950000313DD008A1173208A15013083120313EB
:10196000DA008A1172218A157008A3000130DA00AA
:101970008A1172218A157008A4000130DA008A11D8
:1019800072218A157008A5000130DA008A117221CF
:101990008A157008A6000130DA008A1172218A15B2
:1019A0007008A7000130DA008A1172218A157008C8
:1019B000A800DA018A1172218A157008A9008A111B
:0C19C00079208A158A11F3258A15080089
:1019CC00831603178901F030860003138511031762
:1019DC00881183120313851183160512031708123D
:1019EC008312031385118316851203178812831231
:1019FC0003138511831607108312071083168710A3
:101A0C00831287108316871283128712831607138B
:101A1C008312071383160514031708140530831259
:101A2C000313B100B2019F171F1783169F13831264
:101A3C001F148A11CC278A1500308312B400013090
:101A4C00B5008A11D7278A158A11BF278A156924F0
:101A5C00B3010430330203185B2D3308E13EF00070
:101A6C0007300318013EF1007008A1007108A200B4
:101A7C008A1159208A150A1286000608183A031D85
:101A8C00592D8A114F228A150330FB008A30FC0035
:101A9C005530FD00FD0B502DFC0B502DFB0B502D2C
:101AAC0000000000E723B30A2F2D9024DA21B301A4
:101ABC000430330203188A2D3308E13EF00007305E
:101ACC000318013EF1007008A1007108A2008A11F0
:101ADC0059208A150A1286000608183A031D882D0B
:101AEC008A114F228A150330FB008A30FC005530D6
:101AFC00FD00FD0B7F2DFC0B7F2DFB0B7F2D0000C4
:101B0C000000E723B30A5E2D6B203F21B3010430A4
:101B1C0033020318B92D3308E13EF00007300318E7
:101B2C00013EF1007008A1007108A2008A11592031
:101B3C008A150A1286000608183A031DB72D8A1159
:101B4C004F228A150330FB008A30FC005530FD0013
:101B5C00FD0BAE2DFC0BAE2DFB0BAE2D00000000D3
:0C1B6C00E723B30A8D2DA8222E2DBB2DDF
:080FBA00013402340434083450
:080FC200013402340434083448
:081B7800303430340A3400342B
:101B80005334653463346F346E34643473340A34DC
:021B900000341F
:101B92004D3469346E3475347434653473340A34B4
:021BA20000340D
:0C1BA40048346F34753472340A34003455
:0A1BB0004434613479340A340034FF
:0E1BBA004D346F346E34743468340A340034A1
:0C1BC80059346534613472340A3400343E
:04400E00F22F000786
:00000001FF
