:020000002B2AA9
:0E000600F201F101F001F801F30100300800F1
:100014007B15FB1F14280130F300F201F101F001FC
:08002400FA0DF20CFF30080098
:08002C00FA1FF2130030080076
:10003400FB14FB1F2428FF30F300F200F100F00052
:08004400FA0DF20CFF30080078
:10004C007C185C28FC182D287C197B282628A001FC
:10005C007208031D4D287108F2007008F100780831
:10006C00F000F801A0157208031D4D287108F2006C
:10007C007008F100F001A01120167208031D4D2824
:10008C007108F200F101A015720803196F282008FD
:10009C00F302031D031C73280310F21B5C28F80DDC
:1000AC00F00DF10DF20DF30B532873287B1B701C14
:1000BC007728F81F7728F00A0319F10A0319F20AB6
:1000CC00031D7728F20CF10CF00CF30A03197B28B2
:1000DC0077280130FC0003207E280230FC000A2027
:1000EC007E280430FC0016207E280830FC001A20E4
:0400FC0000000800F8
:1001000083120313F801F9011030FC00710DF80D92
:10011000F90D7408F8027508031C750FF90203182D
:1001200098287408F80775080318750FF907031065
:0A013000F00DF10DFC0B862808000D
:10013A007B14FB1FA828F201FA1FFF30F200F1001E
:0A014A00F000FA0DF20CFF3008007F
:0E0154008312031332088A003108820008006B
:1001620083120313FB01FC01FA0173080319F0283F
:10017200F2178E30F302F31BC1280319C128F328AA
:10018200F309F30A08307302031CD628F300F10DB9
:100192007208F100F20108307302031CD628F10D37
:1001A200F1017308031D0310DE2873080319DE280A
:1001B2000310F20CF10CF30BD9287B1B711CE828FD
:1001C200031CE828F10A0319F20AF21BFF28FA1F9E
:1001D2000229F209F109F10A0319F20A0229F201CC
:1001E200F10102297B14FB1F0529F201FA1F0529DF
:1001F200FF30F200F100FA0DF20C05290130FC008B
:1002020007290030FC000729FF30FC00FC08031915
:0E0212000B299D207108F0007208F100080011
:10022000831203132D08213E8400000887008815DF
:100230000230FC004B30FD00FD0B1C29FC0B1C297F
:1002400088112E08213E840000088700081502301E
:10025000FC004B30FD00FD0B2B29FC0B2B2908115A
:100260002F08213E84000008870088140230FC001B
:100270004B30FD00FD0B3A29FC0B3A298810300861
:10028000213E84000008870008140230FC004B3037
:0E029000FD00FD0B4929FC0B49290810080050
:10029E00831203133408033C031D57293308E83C2B
:1002AE0003185B29B301B401E830F4000330F50004
:1002BE003308F0003408F10080207008B000E830F8
:1002CE00F4000330F5003308F0003408F10080200C
:1002DE007808F0007908F1007008B5007108B600D2
:1002EE006430F4000030F5003508F0003608F100F7
:1002FE0080207008AF006430F4000030F50035083F
:10030E00F0003608F10080207808F0007908F1003E
:10031E007008B5007108B6000A30F4000030F50020
:10032E003508F0003608F10080207008AE000A3063
:10033E00F4000030F5003508F0003608F10080209A
:0E034E007808F0007908F1007008AD00080092
:10035C00AA208A110A128000840AB10A0319B20A6F
:08036C00F003031DAE29080097
:10037400831203137008F800FB01FC019E30F300A4
:10038400FA01F201F101F0010230FC00262008001C
:1003940083120313FB017308031D77080319212A31
:1003A40072087606FA007708F3077E30031CDE290C
:1003B400F3020318242AE129F302031C272A7208F2
:1003C400F8007108FC007008FD00F817F617031018
:1003D400F201F101F0011830A0007D1CFB29740822
:1003E400F00775080318750FF10776080318760FE0
:1003F400F207F20CF10CF00CF80CFC0CFD0C0310E1
:10040400A00BEF29F21B0B2AF80DF00DF10DF20DE4
:10041400F3037B1B701C1D2AF81F1D2AF00A031905
:10042400F10A0319F20A031D1D2AF20CF10CF00C57
:10043400F30A0319242AFA1FF2130030292A01307F
:100444000320292A02301A20292A04300A20000015
:0204540008009E
:100456003F3083120313A1000630A2005B30A300D5
:100466004F30A4006630A5006D30A6007D30A70091
:100476000730A8007F30A9006F30AA00F03083163D
:100486008800051403170814831203139F171F17F8
:1004960083169F1783121F14831687018312870101
:1004A6002730FC00F530FD00FD0B572AFC0B572AC0
:1004B6009F149F1C5F2A5C2A83161E08F000BA212F
:1004C6005830F4003930F5001C30F6008130F70062
:1004D600CA21B1207008AB007108AC007008B300E7
:0C04E6007108B4004F211021532A782A1D
:04400E00F22F000786
:00000001FF
